:040000008031122811
:100008007E14803120007F082100EB0081317521AA
:1000180021006B082000FF007E10090080311428A1
:100028002100E001E101E201E301E401E501220030
:10003800EE01EF01A0308400013085004B3087319C
:10004800F727803120308400023085001230873154
:10005800F7278031A0308400023085004030873196
:10006800F727803120308400033085004030873105
:10007800F72780312E308400973085003230860093
:10008800023087001230973113277E102000883104
:100098001A2820005203031D652850081F39003A0A
:1000A800031D65282300B517033020005106031DE2
:1000B80063280130E60066082300D1006528230084
:1000C800D10120005208031D080050081F39023AC8
:1000D800031D080054080F39003A03190800540892
:1000E8000F39E600033066020318080020302300A9
:1000F8005606031D0800B5172000D41B9228540883
:100108000F390907AD3E860001308700403FEB00FC
:10011800413FEC0054080F39C33EA02854080F395A
:100128000907A73E860001308700403FEB00413FAA
:10013800EC0054080F39C03E8600013087000108E2
:10014800E6006608EA006A18B328FB30E600FF30CC
:10015800E7006B086605EB006C086705B8280430F3
:100168006B04EB0000306C04EC00D41BC728540867
:100178000F390907AD3E8600013087006B08C03F84
:100188006C08C13FD22854080F390907A73E8600DA
:10019800013087006B08C03F6C08C13F033051062F
:1001A800031DF4286B0886006C088700811FE92866
:1001B800D41BE22854080F39C33EE52854080F39E8
:1001C800C03E86000130870081146B0886006C08E9
:1001D800870001156B0886006C08870081170800E6
:1001E80004306B06EB0000306C06EC006B088600F0
:1001F8006C088700811F1D297F30E6006B08860088
:100208006C088700660881056B0886006C08870003
:1002180001170030E1000530E0006C08E3006B08CE
:10022800E2000230E4000030E5008931D921803154
:10023800232920006B0886006C088700011704300A
:1002480020006B06EB0000306C06EC00EA1832293F
:100258006B0886006C088700811F5729D41B382932
:1002680054080F39C33E3B2954080F39C03E860055
:100278000130870081103B30E6006B0886006C086F
:100288008700660881050030E1000530E0006C0851
:10029800E3006B08E2000230E4000030E500893139
:1002A800D921803160293B302000E6006B088600A8
:1002B8006C08870066088105200054080F39983EAD
:1002C800E600E7010E30E73D6608E8006708E90048
:1002D800FE30E60068088600690887006608810520
:1002E800080023005603031D85293D008E1A852921
:1002F80090011214121602302100E9006908230047
:10030800D6003D001019121D9229FB302100E9008A
:1003180069083D0090058831DA2081313D008E1C46
:1003280098292000121108001018121CAB298531D9
:1003380062258131210012150430E9006908230083
:10034800D600FE302100E90069083D009005101A2A
:10035800121EB12988317B2081313D00101FDB2915
:10036800121FC62973302000E0000030E100003081
:10037800E2000030E3000130E4000030E50089319C
:10038800D9218131BF302100E90069083D0090057D
:10039800973185278131230059080319D529013060
:1003A800D9025908031DDB298E31082681313D0009
:1003B800901A921EE2298731D02781313D0090188A
:1003C800921CF829FF302000E0007F30E100003067
:1003D800E2000030E3000130E4000030E50089313C
:1003E800D92181313D0093010430230056020318BE
:1003F800002A2000121108003D00921D592A2000F1
:10040800EF0104306F020318592A3D00901D592A44
:100418000F082100E9006908E500650CE900E90C0E
:10042800690C0F39EA006A082200EE00F730210053
:10043800E90069083D00900521006519272A220076
:100448006E08C33E2A2A22006E08C03E860001308C
:100458008700010801392100E9000130E906010897
:100468006906FE396906810022006E08031D402ACC
:100478008B310F2381314F2A72302000E000003089
:10048800E100E530E2000030E3000030E400E50080
:100498008931D921813101302100E9006908200022
:1004A800EF0704306F02031C092A2000121108000C
:1004B8002100121123004808490403196C2A48082E
:1004C800860049088700811F6C2A21001215080040
:1004D800033023005E060319DE015E08031D772A38
:1004E800210012150800023023005E06031D972A1A
:1004F8002200E001E00A0030E1000030E200E30100
:1005080002308F317C278231220061082300C90024
:10051800220060082300C80003302200EB006B08AB
:100528002300DE00252B5E03031D252B41305F02CF
:10053800031CA02A4030A22A23005F082200EB00F7
:100548006B08ED006D03FF3A23005F072200EB0004
:100558006B082300DF00A0302200EB006B082300AB
:10056800CC0022006D08EB006B08EC0023005C084F
:100578000319DA2AFA2A23004E0886004F08870052
:1005880001082200EB0023004C08860087012200A6
:100598006B0881000130EB006B082300CC070130A9
:1005A800CE070030CF3D01302200EC0222006C085B
:1005B8000319FE2ABF2A23004E0886004F08870029
:1005C80001082200EB0023004C0886008701220066
:1005D8006B0881000130EB006B082300CC07013069
:1005E800CE070030CF3D01302200EC0222006C081B
:1005F800031DDF2A23005F08031D0F2B4030220054
:100608006D06031D092B02300B2B03302200EB0073
:100618006B082300DE002200E001E00AA030E100C0
:100628000030E2006D08EB006B08E30002308F3108
:100638007C27220061082300C900220060082300EB
:10064800C800210012150800ED3483347334833454
:10065800A7348334303483340934023443340034C7
:10066800023401340034C0343234093404340034E0
:1006780000340134023402340134003405342434A3
:100688000034103401340434243402340234053480
:10069800243406340034013405342434013400345D
:1006A8000134073405348134033408340034023407
:1006B800093404340134003402340A340034003478
:1006C8000034073405340234023440340034003432
:1006D800073405348234023440340034003434346E
:1006E80003344D34003469340034633400347234D4
:1006F80000346F34003463340034683400346934AF
:1007080000347034003420340034543400346534F8
:10071800003463340034683400346E3400346F3489
:1007280000346C3400346F34003467340034793466
:10073800003420340034493400346E3400346334D7
:1007480000342E3400343434033443340034443415
:1007580000344334003420340034523400345334E9
:1007680000342D340034323400343334003432341D
:10077800003420340034453400346D34003475348A
:1007880000346C3400346134003474340034693417
:1007980000346F3400346E34003420340034443470
:1007A8000034653400346D3400346F34003412344E
:1007B8000134003402340234003400340834D834AC
:1007C80004340A340034003401340134023400346F
:1007D800013404340334093404342030230056022D
:1007E800031C08003D008E18080001309731562779
:1007F8008331013A031D0F2C23005B08031D112CC4
:100808005E08031D112C32308831FA208331230011
:10081800DB01DB0A112C2300DB015E08031DA82C79
:100828004030EC006C082200EB00A0308B31B8237C
:1008380083312300ED006D082400C500C60145087A
:1008480046020318392C4608A03E8600023087006D
:1008580001082300EC006C082400C40001302300C8
:10086800EC006C082400C607232C45080319A82CA3
:1008780020009212921E3E2C92122400C6019A2C3D
:1008880007302300EC00EC0B472C0032702C0430AE
:100898002300ED001C30EC00EC0B502CED0B502C21
:1008A8000000702C34302300ED00F130EC00EC0B2C
:1008B8005B2CED0B5B2C0032702C24004408313A81
:1008C8000319702C033A0319442C013A03194B2CD1
:1008D800073A0319562C702C21009D149D18722C70
:1008E80002302200E0000030E10021001C08230053
:1008F800EC00ED016C082200E20023006D082200E4
:10090800E3008A3169228331220060082300EE0067
:1009180024004608203E86000330870023006E0826
:1009280081000130EC006C082400C6073D30460207
:10093800031C612C3E302300EC006C082200E00010
:10094800203088312820833182315C220800210040
:1009580012113D009301900198010E302200E2002F
:100968009930E100E301023063020318CC2C6108DE
:1009780086006208870081010130E1070030E23D0E
:100988000130E0006008E30702306302031CBB2C5F
:1009980016303D0091009F3097007B309200220076
:1009A800E4010C3064020318F22C6408E000013002
:1009B800E035FF3E031DDC2C6035203E86008701B4
:1009C8000030C03F0030C13FC23FC33F0130E000AC
:1009D8006008E4070C306402031CD92C3D000E1794
:1009E80096010E120E13F7302200E00060083D0059
:1009F80090052300B501A201A301A4013D009019AF
:100A0800F72C01302200E00060082300D7000130F5
:100A18002200E00060082300D800D301D401D201ED
:100A28002200E4010330640203183E2D6435A73E1A
:100A38008600013087000030C03FC13F6435AD3EBD
:100A48008600013087000030C03FC13F6408C03EC7
:100A580086000130870081016408C33E86000130AA
:100A6800870081010130E0006008E4070330640278
:100A7800031C1A2D28302300A7000030A8001630C8
:100A88003D00980000302000A3005030A20008303C
:100A9800A10004302200E00060082000A000A01798
:100AA8002200EF0100302300BF000030BE000030FC
:100AB800BD000030BC00DA01D60108002100121187
:100AC8003D009301900198010E30F2009930F10039
:100AD800F301023073020318822D71088600720830
:100AE800870081010130F1070030F23D0130F0004C
:100AF8007008F30702307302031C712D16303D0095
:100B080091009F3097007B309200F4010C30740202
:100B18000318A72D7408F0000130F035FF3E031DBF
:100B2800912D7035203E860087010030C03F00308F
:100B3800C13FC23FC33F0130F0007008F4070C30DA
:100B48007402031C8E2D3D000E1796010E120E1313
:100B5800F730F000700890052300B501A201A30149
:100B6800A4013D009019AC2D0130F000700823005D
:100B7800D7000130F0007008D800D301D401D201A9
:100B8800F401033074020318ED2D7435A73E860076
:100B9800013087000030C03FC13F7435AD3E86004C
:100BA800013087000030C03FC13F7408C03E860056
:100BB8000130870081017408C33E86000130870038
:100BC80081010130F0007008F40703307402031C3F
:100BD800C92D28302300A7000030A80016303D009A
:100BE800980000302000A3005030A2000830A10077
:100BF8000430F0007008A000A0172200EF010030B8
:100C08002300BF000030BE000030BD000030BC0033
:100C1800DA01D60108002100630886008701413FF8
:100C2800F5007508F200F301730823002402031D80
:100C38001F2E720823020318252E2308F2007208BB
:100C4800F5007508F200F3017208A3027308A43BCB
:100C5800F401750874020318462E7408583E86007D
:100C680087010108F2002008860001308700720819
:100C780081000130F2007208A0070130F20072080A
:100C8800F4072D2E230824040319812E210060085F
:100C9800013EF2000030613DF300720886007308DF
:100CA8008700083081005830F2000030F3006008F7
:100CB80086006108870042317208C03F7308C13F4F
:100CC800630886008701011B752E6008860061088D
:100CD8008700483081006008860061088700811716
:100CE80008006008860061088700083081006008F5
:100CF8008600610887008117080021006008013E0E
:100D0800F2000030613DF300720886007308870026
:100D1800083081005030F2000030F300600886008F
:100D28006108870042317208C03F7308C13F6008FC
:100D38008600610887000430810060088600610829
:100D480087008117230025082608A2135508031DCC
:100D580008008E31082608003D000E122300B51B3E
:100D6800F82EA21FC62E0230F50075082100E200F9
:100D780023005408031DC22E8C3112242300D801ED
:100D8800D701080021006008013EF5000030613DF0
:100D9800F600750886007608870008308100503014
:100DA800F5000030F60060088600610887004231CF
:100DB8007508C03F7608C13F600886006108870053
:100DC8000C308100600886006108870081172300C5
:100DD8002708860028088700043081002708860035
:100DE80028088700811708002000D01F102F013025
:100DF800F50075082100E20023005308031D072FA2
:100E08008C31122486312300D801D7015508031DDF
:100E180008008E31082608000230F5007508210008
:100E2800E2006008013EF5000030613DF6007508FB
:100E3800860076088700083081005030F5000030C1
:100E4800F600600886006108870042317508C03FD7
:100E58007608C13F60088600610887000430810079
:100E6800600886006108870081172300D801D70130
:100E78005508031D08008E31082608002300B51701
:100E88000E302000E8009930E700E90102306902DD
:100E980003185F2F67088600680887008101013002
:100EA800E7070030E83D0130E6006608E907023050
:100EB8006902031C4E2F2030F0000030F100003092
:100EC800F200F3003030F4000030F50097316D2760
:100ED80087313D000E172000EA0103306A0203182B
:100EE800892F6A08C03E86000130870081016A08A0
:100EF800C33E86000130870081010130E6006608A4
:100F0800EA0703306A02031C752FE930F00001304C
:100F1800F1000030F200F3000230F4000030F50078
:100F280097316D2787313D000E1328302300A70025
:100F38000030A80020302000E60066082100E30009
:100F48006308E000FF39031D0030E100200052086B
:100F5800E60066082200EF006F08031DBA2F103064
:100F68002000E60066082300D600080000302000B4
:100F7800E1000130E0006F30E2000130E3000130B1
:100F8800E4000030E5008931D92120302000E60056
:100F980066082300D60008003D00181CF22F210027
:100FA80063088600870180300106031DF02F2300A7
:100FB800270886002808870084300106031DF02FC3
:100FC8000C30F0002100630886008701700881005A
:100FD80063088600870181173D001810DF30F00094
:100FE800700890050800640080010131890BF82F12
:020FF8000034C3
:101000008C31F22C8C31F52C8D312E2D8C31F52C30
:101010008D312E2D8C31D52C8C31DE2C8D31152D32
:101020008C31E42C8C31E12C8C31F82C8D31082D55
:101030008D312E2D003097319D2788318431AB249E
:10104000883188315E2088318331F123883124282A
:101050002200E2002100121123005E08031D402837
:10106000220062082300CE000330CF002200600877
:10107000E10061082300DF00DC01DC0ADE01DE0A9A
:101080002100121508002200E000522821000E1055
:10109000080021008E10080021000E110800210018
:1010A0008E11080022006008840005300402031835
:1010B000080090310435003E8200080023005608E5
:1010C000031D08003D008E019201163091009F30F3
:1010D00097007B309200210012150B178B173D00F3
:1010E0008E1974288E156F2801302200E0006008E8
:1010F0002300D60008003D001215EF302000E60066
:1011000066083D0090058E1401302000E600660858
:101110002300D200DA0175302000E0000030E10049
:101120000030E2000030E3000030E400E5008931E7
:10113000D92108002300E6010830F0007008E8001B
:10114000E7010030E5000030E4002530E3008030A6
:10115000E200DB01293021009D0050309E009F01FC
:10116000D6302200910092309200803098001030EA
:1011700099000800FC00771DC228F0017C08893125
:1011800097218831F71CC928F001F00A7C088931C1
:1011900097217C08983EF800F9010E30F93D780857
:1011A000FA007908FB007A0886007B088700770838
:1011B000810008002300D20174302000E0000030DC
:1011C000E1000030E2000030E3000030E400E50020
:1011D0008931D92188313D008E101211101DF72858
:1011E000FB302000E60066083D009005EE28230055
:1011F000DA0108002200E2002100121123005E083B
:10120000031905292100121508002200E3016208D4
:10121000E0006008E1000130E0006008E307630AD5
:1012200003191A296108860002308700E10A0108C3
:10123000031D0B2962082300CE000230CF002200DC
:101240006308E00060082300DF00DC01DE01DE0A45
:1012500021001215080000302300E5000030E400F2
:101260004B30E3000030E200E601E7010830FD000A
:101270007D08E800DD011A30FD007D08F70001302F
:101280008831BA2089311E30FD007D08F700023018
:101290008831BA208931F0012030F1000130F200AC
:1012A0004030FD007D08F30002308E31F9267108D0
:1012B0002300CB007008CA00C801C901DE01080084
:1012C000023021006206031D682986310F260800BE
:1012D0002100E20123005008031D94292100600829
:1012E000013EF6000030613DF70076088600770881
:1012F0008700083081005030F6000030F7006008A9
:1013000086006108870042317608C03F7708C13FF8
:1013100060088600610887000C3081006008860044
:1013200061088700811708002300D0010800F5003C
:101330002030F1007108F6007008F1000130F1353D
:10134000890B9F297508F2000130F235FF3E031D1D
:10135000A52972357107F3000130F335FF3E031DF7
:10136000AD297335F4007408F60776088600870106
:1013700081137008031DC6297535AD3E8600013006
:1013800087007608C03F0030C13FCF297535A73EA2
:101390008600013087007608C03F0030C13F7608E4
:1013A0008600870101137608043E86008701011735
:1013B0000800F4298A311D2208008A311D22893152
:1013C00001309731402708008A311D2289310230CF
:1013D00097314027080089312B21893188319A20A3
:1013E00008008C316E24080020006108003A0319BF
:1013F000FD297F3A0319172A1C2A6008013A0319AC
:10140000EB29033A03191C2A013A0319F129063A78
:1014100003191C2A773A03191C2A013A0319DA29FD
:10142000073A0319E429013A0319DD291C2A600847
:10143000FF3A03191C2A1C2A08003D008E1C5D2A55
:1014400001309731B5270800230046034704031DE8
:101450002E2A01309731CE278A31632A4B30230060
:1014600046064704031D392A01309731B5278A31D2
:10147000632A0030230047029730562A4603470468
:10148000031D472A01309731CE278A31632A323033
:10149000230046064704031D522A01309731B52721
:1014A0008A31632A033023004702B730031946020A
:1014B000031C632AC601C701632A23005608203A89
:1014C0000319242A3E2A01302300C6070030C73DF5
:1014D00008002200E601E11F742AE009E109E00AA0
:1014E0000319E10AE601E60AE31F7F2AE209E3099C
:1014F000E20A0319E30A0130E4006408E606E701A2
:10150000E801600861040319AE2AE501E50AE11B60
:10151000932A0130E035E10D890B8A2A0130E4007D
:101520006408E507872A0130E735E80D890B942A1E
:1015300061086302031D9E2A60086202031CA52A3B
:101540006008E2026108E33B67140130E136E00C19
:10155000890BA62A0130E502031D932A66080319A8
:10156000B62AE709E809E70A0319E80A6808E1006A
:101570006708E00008002100E4012300D501D30141
:10158000D401D0012100E2017F302000EE002300D1
:10159000270886002808870020006E08810504308F
:1015A00023002706A70000302806A8007F3020006F
:1015B000EE002300270886002808870020006E0818
:1015C0008105043023002706A70000302806A80064
:1015D0007F302000EE00210060088600610887004F
:1015E00020006E0881052300B501B601B701A201F4
:1015F000A301A4018C31CD248A3100302000E10008
:101600000330E0000030E2000030E3000030E4008E
:10161000E5008931D9218A318631B02608002D3084
:101620002100E60066082300D90021006508FD3985
:10163000031D582B65363F39E6000130E635FF3E85
:10164000031D1E2B6635203EE7006708E300630894
:10165000E000FF39031D0030E10004306006E000C7
:1016600000306106E100630886008701010C890CE7
:101670000F390D3A031D552B50308600870121008C
:101680006308023E84008501003FE600013FE70059
:1016900066088400670885000830E80012001E0014
:1016A000E80B4E2B8A31BB220800893160210800EB
:1016B000FD3021006505E60004306606031D0800C4
:1016C0008D31992508002000D801D9019F2B2300D6
:1016D000B51723005103031DAB2B2000D814AB2BEF
:1016E0002300B517AB2B2300B5172000D41B832B89
:1016F00054080F390907AD3E860001308700403F8E
:10170000F100413F8D2B54080F390907A73E860091
:1017100001308700403FF100413FF2007108860030
:1017200072088700811FAB2B710886007208870042
:10173000011DAB2B0130F0007008D800AB2B500816
:101740001F39003A0319672B013A0319702B033A2A
:101750000319732BAB2B2300B51F08005830B300BF
:101760000030B40035140230F0007008B6000800F4
:101770002300EB00DD014A084B040319C52B4A087E
:1017800086004B088700811B102C4A0886004B08F6
:101790008700413122006B0801020318DA2B230075
:1017A0004A0886004B088700413101082200EC00FE
:1017B0006C08EB002300DD0122006B0823005D02B2
:1017C0000318FB2B5D08203E8600013087000108CE
:1017D0002200EC0023005D086B072200ED006D087D
:1017E0008600023087006C0881000130EC006C0834
:1017F0002300DD07DC2B2200E0012030E100013076
:10180000E2004030EC006C08E30002308F317C27AE
:10181000220061082300CB00220060082300CA00D8
:101820005D0808002300D301D401023021006206C4
:10183000031D3F2C6008013EF3000030613DF400C1
:101840007308860074088700083081005830F30060
:101850000030F40060088600610887004231730898
:10186000C03F7408C13F60088600610887004830A7
:101870008100600886006108870081170800230046
:10188000370820005702031D492C2300360820008A
:1018900056020318522C57082300B70020005608A0
:1018A0002300B6008D312F255830F3000030F400AE
:1018B0002300270886002808870042317308C03FAC
:1018C0007408C13F27088600280887004830810037
:1018D0002708860028088700811708002000500884
:1018E0001F39013A031D0800500E890C0339013AD3
:1018F000031D080054080319BA2C5403031D0800E3
:10190000BA2C2A302300B3000230B4000030B700F4
:101910000830B6003514B51708002A302300B3008C
:101920000230B400B5170800200057082300A400B7
:10193000200056082300A300E230F0007008A00049
:10194000A501A601A2170800E2302300B300013070
:10195000B4000030B7000730B600C130F0007008A6
:10196000B500080020005208F00070082300E000D5
:10197000B517080020005108003A0319812C013ADC
:1019800003198D2C213A0319942C013A0319A42C24
:10199000033A0319B22CCC2C08002000500E890CFD
:1019A0000339003A031D0800232D2300B517083022
:1019B0002000ED006D082300D60008008E317A2645
:1019C00008008731422708006F302300B300013040
:1019D000B400351401302000ED006D082300B6007E
:1019E000B51708008B316323080080314D200800B3
:1019F00020005408E93E2300B3000130B400351440
:101A000001302000ED006D082300B600B517080076
:101A10002300B51720005208ED005408E93E860067
:101A2000013087006D08810008000030E1000230BD
:101A3000E0000030E2000030E3000030E400E500A8
:101A40008931D92108002000510884000D3004029A
:101A50000318080088310435003E82000800083071
:101A6000F0007008F200003023003702083003193C
:101A7000360203184C2D3608F0007008F2002100E1
:101A80006408031D452D0130492D6403031D4C2DB1
:101A90000230F0007008E4007208F000F1017008F4
:101AA0002300B6027108B73B2708013EF000003062
:101AB000283DF100700886007108870072088100D7
:101AC0005830F0007008E100351C7C2D952D33084E
:101AD0008400340885000008F00061088600870152
:101AE000700881000130B3070030B43D0130F000D0
:101AF0007008E1070130F202720803190800672D2F
:101B000033088400340885000008F000610886006E
:101B10008701700881000130B3070030B43D013007
:101B2000F0007008E1070130F202720803190800A2
:101B3000802D230027088600280887000030011B1D
:101B40000130F50004302706A70000302806A80061
:101B500008305606031DBB2D200052087F393D007A
:101B6000960016080319B62D1030B72D0430F30077
:101B700073082300D60021006203031DFF2D583097
:101B8000F3000030F40023002708860028088700AF
:101B900042317308C03F7408C13F8D312F258D310C
:101BA000023021006406031DE22D23002708860071
:101BB000280887000430810027088600280887004D
:101BC000811708007508031DF22D230027088600E1
:101BD00028088700483081002708860028088700E9
:101BE000811708002300270886002808870008308E
:101BF0008100270886002808870081170800230035
:101C0000A21F052E25082608A2132100E2010800C4
:101C100023005708031D08000130F0007008D700AA
:101C20005808031D08000130F0007008D800023089
:101C300021006206031D2F2E230027088600280896
:101C40008700413181012708860028088700483035
:101C500081002708860028088700811708002100D6
:101C60006203031D08002300D0010830F0002100AA
:101C7000630A86008701700881005030F000003050
:101C8000F1006308023E860087017008C03F7108BA
:101C9000C13F0430F00063088600870170088100AE
:101CA00063088600870181170130F0007008230067
:101CB000D00021006008013EF0000030613DF100DD
:101CC0007008860071088700083081005030F000ED
:101CD0000030F1006008860061088700423170081A
:101CE000C03F7108C13F60088600610887008030EE
:101CF00081000800803020005006031D0800C0301D
:101D0000F00070082300B500EC2EDB302300B30098
:101D10008330B4000030B7001230B6000800200055
:101D20005208031DC22E5208F000F101F035F10DEA
:101D30002E30700784008330713D8500003F230002
:101D4000B300013FB4003408F1003308F000023062
:101D50007007840071080318710A85000008F200FA
:101D60007208B6003408F1003308F0000330700741
:101D7000840071080318710A85000008F2007208D7
:101D8000B70008002300B50108000330200052020C
:101D90000318E62E5208F000F101F035F10D28305D
:101DA000700784008330713D8500003F2300B3003D
:101DB000013FB40033088400340885000008F000B7
:101DC000F1017008B6007108B70008002300B501E2
:101DD00008002300B501080020005308013A031948
:101DE000852E033A03198F2E013A0319C52EE92EC9
:101DF0000800F80070080319062F7835A73E860002
:101E000001308700403FF900413F0E2F7835AD3E4D
:101E1000860001308700403FF900413FFA00790811
:101E20007A04031D162FF001F1010800FF3071053F
:101E3000F4007F307205F500790886007A08870083
:101E400042317408C03F7508C13F7908013EF40073
:101E500000307A3DF5007408860075088700730825
:101E600081004030F400790886007A088700740801
:101E70008105790886007A0887008115790886002F
:101E80007A0887008117700803195F2F7835A73EFD
:101E9000860001308700403FF400413FF5000430E8
:101EA0007406F60000307506F7007835A73E860008
:101EB000013087007608C03F7708C13F772F78351B
:101EC000AD3E860001308700403FF400413FF50001
:101ED00004307406F60000307506F7007835AD3E24
:101EE0008600013087007608C03F7708C13F7A0836
:101EF000F1007908F00008002200E80060080319EA
:101F00008A2F6835A73E860001308700403FE900F0
:101F1000413F922F6835AD3E860001308700403F3B
:101F2000E900413FEA0069086A04031D9A2FE001B5
:101F3000E1010800FF306105E4007F306205E50043
:101F4000690886006A08870042316408C03F650856
:101F5000C13F6908013EE40000306A3DE5006408C5
:101F6000860065088700630881004030E400690846
:101F700086006A08870064088105690886006A0887
:101F800087008115690886006A0887008117600844
:101F90000319E32F6835A73E860001308700403FD4
:101FA000E400413FE50004306406E60000306506C9
:101FB000E7006835A73E8600013087006608C03F0D
:101FC0006708C13FFB2F6835AD3E860001308700B2
:101FD000403FE400413FE50004306406E600003085
:101FE0006506E7006835AD3E86000130870066086B
:101FF000C03F6708C13F6A08E1006908E0000800C7
:1020000088315D28883146288831492888314C2814
:1020100088314F289731FF2F9731E92F9731EC2FD7
:102020009731EF2F9731F22F9731E62F9731D02F3D
:102030009731D32F9731D62F9731D92F9731CD2F75
:102040009731B72F9731BA2F9731BD2F9731C02FC6
:102E2600FE0012001E00FE0B142F0034F000700886
:102E3600003A0319222F013A0319222F222F0800E4
:102E46002200E0006008003A03192D2F013A031909
:102E56002D2F2D2F080042347534743474346F349A
:102E66006E3420347034723465347334733465349C
:102E760064342E340D340A340034F1004A2F013004
:102E86009731E727973101309731192708007108E4
:102E9600003A0319422F013A0319552F033A031931
:102EA600552F552F08002200E000622F0310200046
:102EB6008C1D03140030093D080000300800220074
:102EC6006008003A0319602F013A0319592F6B2F36
:102ED600003008007108F7007008F6000130F402AF
:102EE6000030F53B740A0319750A031908007608C1
:102EF600860077088700720881000130F6070030E7
:102F0600F73D712F01302300BC070030BD3D003076
:102F1600BE3D0030BF3D5208031D08000130F000E1
:102F26007008DA075A08031D0800FF30F000700821
:102F3600DA0008002200E100A82F01308831432082
:102F46009731013097312327080022006108003AA3
:102F56000319A02F013A0319B42F033A0319B42F0A
:102F6600B42F0800F000C32F22000E100800220024
:102F76008E10080022000E11080022008E11080093
:102F860070088400053004020318080090310435E7
:102F96001E3E82000800F000DC2F22000E140800FE
:102FA60022008E14080022000E15080022008E153D
:102FB60008007008840005300402031808009031E8
:102FC6000435143E82000800F000F52F21000E1093
:102FD600080021008E10080021000E1108002100B3
:102FE6008E110800700884000530040203180800DA
:0A2FF600903104350A3E8200080005
:020000040001F9
:04000E00A2CFCFDFCF
:00000001FF
